:020000040000FA
:1000000000000420110400001D040000850200000F
:10001000210400009102000097020000000000008F
:100020000000000000000000000000004D03000080
:100030002904000000000000E5030000F5030000B3
:10004000E9D6000085E400002F0400002F04000022
:100050002F0400002F0400002F0400002F040000D4
:100060002F0400002F0400000DFD0000C1E400007B
:100070002F040000A5E400002F040000E16400004C
:100080002F0400002F0400002F0400002F040000A4
:100090002F0400002F0400002F0400002F04000094
:1000A0002F0400002F0400002F0400002F04000084
:1000B0002F0400002F0400000000000000000000DA
:1000C0002F0400002F0400002F0400002F04000064
:1000D0002F0400002F0400002F0400002F04000054
:1000E0002F0400002F0400002F0400000000000077
:1000F000000000002F040000000000002F0400009A
:1001000000F002F82BF09EFE0AA090E8000C82445A
:100110008344AAF10107DA4501D12BF093FEAFF237
:10012000090EBAE80F0013F0010F18BFFB1A43F0D5
:1001300001031847C4860500E48605000A444FF011
:10014000000C10F8013B13F0070408BF10F8014B36
:100150001D1108BF10F8015B641E05D010F8016B7B
:10016000641E01F8016BF9D113F0080F1EBF10F8DF
:10017000014BAD1C0C1B09D16D1E58BF01F801CB02
:10018000FAD505E014F8016B01F8016B6D1EF9D585
:100190009142D6D37047000000230024002500269A
:1001A000103A28BF78C1FBD8520728BF30C148BFDA
:1001B0000B6070476E2900F09783702900F07D84F2
:1001C000662913F08EA5652913F08BA5672913F016
:1001D00088A5612913F087A503681B0A28BF41F091
:1001E0008001692900F04483642900F04183752966
:1001F00000F03E836F2900F00B84782900F04984D9
:10020000E92901F07985E42901F07685F52901F0E5
:100210007385EF2900F00884F82900F0488403680A
:10022000DB0928BF41F08001632901F04285732971
:1002300001F04785E32901F05285F32901F0578544
:10024000002070471FB553F037FD9DE8030001F013
:1002500062FA01F043FA04000020002153F0F8FA9A
:10026000401C60600020002153F008FBE06000208B
:10027000002153F019FB206102F038FA01F012FA64
:100280001FBD00004FF0100308E04FF0200305E011
:100290004FF0300302E04FF0400300BFEFF308805F
:1002A0004FF0040172460A4201D0EFF309809C46E8
:1002B000254B196802680A60043142680A600431FB
:1002C00082680A600431C2680A600431F0C147469E
:1002D0000F6004314F460F60043157460F60043100
:1002E0005F460F60043102690A60083142690A60A2
:1002F000043182690A600431C2690A60043103462C
:1003000020334FF40076324200D0043375464FF06C
:100310001006354200D148330C46103C2360EFF301
:1003200009820A600431EFF308820A6004317246E0
:100330000A600431EFF314820A606046024B1968C8
:1003400049F0A8FAFEE70000C87305001EF0040F8C
:100350000CBFEFF30880EFF30980816911F8021CEC
:1003600091BB01B590E80F10E047BDE800508CE864
:100370000300244B93E80600914208BF704741B93F
:100380001EF0100F10D12049086820F0010008600D
:100390000AE02CE9F00F1EF0100F08BF2CED108AB8
:1003A000C1F838C081F822E01A6092F82210906BF0
:1003B00061F0FF0E1EF0100F08BFB0EC108AB0E81D
:1003C000F00F80F309887047104A13689942FAD8F1
:1003D00001B552F821C00FC8E047BDE80050CCF885
:1003E0000000704701B54BF01DFBBDE80140EFF385
:1003F000098CBEE701B54BF093FDBDE80140EFF37A
:10040000098CB6E73403002034EF00E0D073050018
:10041000074880470748804707480047FEE7FEE750
:10042000FEE7FEE7FEE7FEE7FEE7FEE7FEE7FEE7A4
:1004300025FB00004DAB04000101000070470000E7
:1004400010B501F04BF9001D10BD00BF05340500CB
:100450002BF020BD0844401E491E884370470821E8
:10046000001DF7E72DE9F04117460E460446FFF759
:10047000F6FFA042054633D9002F1CBF06F10C0041
:100480002BF04CFD30467468F4B12168A94217D3B3
:1004900005F1080291423CBF6168416007D3626880
:1004A00061194A602268521B0A6041602560002F72
:1004B0001CBF06F10C002BF0B3FD201DBDE8F08140
:1004C00020466468002CE0D12946304601F00FF93F
:1004D0000028D7D1002F1CBF06F10C002BF0A0FD87
:1004E0000020BDE8F08110B5044601F0F2F8016883
:1004F0002046BDE810400122B4E770B516460D460F
:10050000041F002808BF70BD002E1CBF05F10C00A1
:100510002BF004FD2B465868002818BFA04238BFB6
:100520000346F8D31968CA18A24218BF5C6003D109
:1005300022681C461144196021680A19824218BFBA
:10054000606004D142686260006808442060002E48
:100550001CBF05F10C002BF063FD70BD10B5044607
:1005600001F0B7F801682046BDE810400122C4E759
:100570000844401E491E884370470821001DF7E7C4
:100580002DE9F0410F468046041F01F0A2F80668ED
:1005900007B3B8F1000F384622D0FFF7EEFFB8429C
:1005A00005463CBF0020BDE8F08106F10C002BF0B1
:1005B000B5FC2268AA4238BF314615D3511B082921
:1005C00031D36019002240F8041B31462560FFF743
:1005D00094FF28E04046FFF7C1FF0020BDE8F0810E
:1005E000BDE8F041FFF77FBF4868002818BFA04270
:1005F00038BF0146F8D3131983421BD103681A444C
:10060000954217D8531B082B0AD3436862195360CD
:10061000236800681844401B106025604A6002E0AF
:1006200022604068486006F10C002BF0F9FC201DA8
:10063000BDE8F081002231463846FFF713FF050080
:100640000AD041462068021F284600F020FF002201
:100650003146201DFFF751FF06F10C002BF0E0FCA6
:100660002846BDE8F08153EA020C00F069802DE9CC
:10067000F04B4FF00006002B1FBFB3FA83F503FACF
:1006800005F424FA05F65E4012BF1643B2FA82F56D
:1006900002FA05F4C5F120051EBF22FA05FC44EA62
:1006A0000C04203556EA044C4FEA144418BF641C6D
:1006B0004FF000084FF00009904271EB030C39D362
:1006C000002919BFB1FA81F701FA07F6B0FA80F7ED
:1006D00000FA07F6C7F120071EBF20FA07FC46EA1A
:1006E0000C062037B6FBF4FCA7EB0507103F07F01C
:1006F0001F0BCBF120062CFA06F60CFA0BFB44BFBD
:10070000B3460026202FA4BF5E464FF0000B5BEAE5
:10071000060C08BF4FF0010B19EB0B0948EB06085C
:10072000ABFB027C06FB02CC0BFB03CCC01B71EBCA
:100730000C01C1E70B46024641464846BDE8F08B36
:1007400013B5084318BF4FF0FF300146AFF30080E8
:10075000BDE81C4070470B460146184602F05ABBE4
:100760007CB51D4616460C00009001D02044401E6A
:10077000074B7B442A4669460190304601F06FFAE8
:1007800005461CB10020694601F07CFA28467CBD74
:10079000191500000FB4044910B503AA029802F01D
:1007A00039FB10BC5DF814FB7804002070B50446DA
:1007B00085690068C10601D5302600E02026C00703
:1007C00007D070BDD4E9012130469047206A401C13
:1007D00020626D1EF6D570BD70B50446856900783F
:1007E000C00707D170BDD4E9012120209047206ABD
:1007F000401C20626D1EF6D570BD09684A0501D502
:1008000040B27047C905FCD500B2704709684A0577
:1008100001D5C0B27047C905FCD580B2704770B52C
:100820000C460546012A05D02878800600D5EA69DD
:10083000002302E0012305E05B1C934202D2E05C4E
:100840000028F9D1A869E618C01AA861286A1844D6
:1008500028622846FFF7AAFF04E0D5E9012114F831
:10086000010B9047B442F8D32846FFF7B5FF70BD9F
:100870002DE9F0410646002410687529314616A579
:1008800010D0FFF7BAFF002802DA404213A507E0B4
:1008900031688A0701D512A502E0490704D511A5E0
:1008A000012401E0FFF7B2FF00210A2206F124072C
:1008B00009E0B0FBF2FCB0FBF2F302FB1C003030AD
:1008C00078541846491C0028F3D123462A4630465E
:1008D000BDE8F04100F057BF000000002D0000000F
:1008E0002B0000002000000011680268006A530518
:1008F00001D508700AE0D30501D5088006E013068B
:1009000003D5C217C1E9000200E00860012070476A
:100910002DE9FF5F15468A460446DFF8AC80F844AF
:100920000027D8E900103E46CDE9001010E03AF863
:1009300016106A4602A801F0BDFF411C07D02178BD
:10094000890603D5E269391891420DD80744761C0F
:100950002078800602D5E069B84205DDAE42E6DBCC
:100960003AF816000028E2D1A069C01BA061204619
:10097000FFF71CFFD8E90010CDE90010002017E0B8
:100980003AF818106A4602A801F094FFB0F1FF3F50
:1009900081460BD000250DF1080B05E0D4E90121BB
:1009A0001BF8050090476D1C4D45F7D308F1010079
:1009B000B0428046E4DB206A384420622046FFF7DC
:1009C0000BFFBDE8FF9F0000C634050030B40021D6
:1009D00000F1240408E002F00705D208303542EAAD
:1009E0004372DB086554491C52EA0305F3D10468DD
:1009F000002310A2250708D504F020040C4304D0DE
:100A0000C46901230CA2641EC46130BC00F0BBBEEB
:100A100010B5044621461068FFF7F8FE024620464E
:100A2000BDE810400023D1E7D21D22F00701D1E933
:100A30000023CBE70000000030000000F0B40D46BA
:100A40000188090502D5214C7C4402E01F4C7C44FE
:100A50000E34002100F1240608E002F00F0712090D
:100A6000E75D42EA03721B097754491C52EA030707
:100A7000F3D102780023120704D5702D06D009B1F6
:100A8000022311342246F0BC00F07DBE0123103455
:100A9000F8E770B504460D4621461068FFF7B6FE2C
:100AA000024629462046BDE870400023C6E7D21D15
:100AB00022F00703D3E90023C0E70368126843F07C
:100AC000200303600823C3610023B7E7A4330500B4
:100AD0002DE9F05F894604464FF0000ADFF874B153
:100AE000FB44C0F820A02046E1688847002874D065
:100AF000252806D0D4E901219047206A401C2062B5
:100B0000F1E700265F462046E16888472028054631
:100B100007DB312D05D2781910F8200C08B10643F7
:100B2000F1E7B00701D526F00406C4F81CA00027A1
:100B3000C4F818A02A2D09D0284652F0E0FD38B399
:100B400004EB8708303DC8F8185019E059F8041B29
:100B5000204604EB87029161E1688847012F054632
:100B600018D1E069002820DA26F020061DE0D8F828
:100B7000180000EB800005EB40003038C8F8180082
:100B80002046E1688847054652F0B9FD0028EED1BD
:100B9000012F0AD02E2D08D12046E16888477F1CFE
:100BA0000546022F46F02006C4DBA069002803DAC0
:100BB000404246F00106A061F00701D026F0100681
:100BC0006C2D0BD0682D09D04C2D39D06A2D35D025
:100BD000742D35D07A2D33D016E038E0E1682F46F9
:100BE00020468847B842054609D16C2F26D04FF4DD
:100BF0008060E168064320468847054604E06C2F84
:100C00001AD04FF4807006430DB3A5F141001928A6
:100C100002D8203546F400664A462946204626601A
:100C20004E46FFF7C7FA80B101280BD0F61D26F01B
:100C3000070000F1080956E74020E4E78020D8E7E4
:100C40000020D6E706F104094DE7284652E7206A5E
:100C5000BDE8F09F343305000FB400B58DB010A986
:100C6000099000910B904FF0FF300A9000200C90FB
:100C7000064878440690064878446A4607900F99DB
:100C800009A801F037F90DB05DF814FB9F120000C0
:100C9000B71200002DE9FF5F1D464FF0FF3B914664
:100CA0004FF000085F46D5E90146A96901987F1C0D
:100CB0008847296A824688470028F6D1BAF1FF3F63
:100CC0000CD0002E24F4C06419DD600614D5BAF1EE
:100CD0002B0F09D0BAF12D0F0ED103E0584604B006
:100CE000BDE8F09F44F48064A96901987F1C88479F
:100CF000761E8246002E02DDBAF1300F03D0B9F124
:100D0000000F26D032E0A969761E01987F1C44F4BA
:100D100000748847002E824605DDBAF1780F06D0B0
:100D2000BAF1580F03D0B9F1000F10D01EE0B9F19D
:100D3000000F02D0B9F1100F18D1A969761E0198E1
:100D40007F1C24F4007488478246102002E00820AB
:100D500000E00A20814609E0A96908FB0908761E1F
:100D600001987F1C44F4007488478246002E05DDFC
:100D70004946504600F0FEFF0028EDDAE969019887
:100D80008847A00502D46FF00100A8E7E00725D14D
:100D9000600613D5600502D5C8F1000000E04046AA
:100DA00029680A1D2A600968220501D5087015E026
:100DB000220701D5088011E008600FE02868011DB6
:100DC00029600068210502D580F8008006E021072F
:100DD00002D5A0F8008001E0C0F8008038467EE728
:100DE0002DE9FF5F4FF00008994614464646916989
:100DF000D2E901A7DDF838B001988847054659EADD
:100E00000B0005D009E0A1690198761C88470546CA
:100E1000216A284688470028F5D1681C03D05FEA7C
:100E2000CA7005D015E04FF0FF3004B0BDE8F09F68
:100E30002068011D2160D0F800800AE05FEACA70D6
:100E400001D108F8015BA169761C01987F1E8847D3
:100E50000546002F1ADD681C18D0B9F1000F0DD01F
:100E6000E81705EBD060421120F01F0059F822105E
:100E70002A1A012090400142E0D107E0BBF1000FA7
:100E8000DCD12846216A88470028D7D0E16901983B
:100E90008847BBF1000F07D1002E05DD5FEACA705D
:100EA00002D1002188F80010A068B84203DDBBF130
:100EB000000F03D017B16FF00100B6E73046B4E77A
:100EC0002DE9F041044616460D464769007B800730
:100ED0002ED038462BF0CCF850BB3EB3012E02D0BA
:100EE000022E25D104E0204600F066F805441DE0FE
:100EF00038462BF0A9F8E168002841F01001E160C4
:100F000005DA204601F010FB0120BDE8F081C9039D
:100F10000BD56268E16A914200D81146A26911447A
:100F20002269891A814200DD08460544002D01DA54
:100F30000220EAE7E16A6068E268814206D2910332
:100F4000E06203D522F4003141F01002A6690027C7
:100F5000AE4213DCE16A814201D90B4600E0034650
:100F600003EB060C2369ACEB030CAC4506DD8142B8
:100F700001D98C4600E084469C4505D1A7602760D6
:100F800042F02000A5620DE0AD1BE669AE1B814278
:100F9000A66000D90846C01A281A20605819606057
:100FA00022F0200003490840E060002084F84870E7
:100FB000ABE70000BFCFD7FF10B50146C26890076E
:100FC00003D0900607D5886A0AE0FFF741FA0121AD
:100FD0000160881E10BD8B69486818440B69C01AEF
:100FE00091F848301BB191F84910401A10BD110317
:100FF000FCD50028FADD401E10BD11B14FF48072FF
:1010000001E04FF480624FF4007301F03BBB2DE927
:10101000F04704464FF000094FF0FF37C568D4E9A8
:101020000486A80707D0204601F0B2FA30462BF01C
:1010300007F8002802DA3846BDE8F087280502D50F
:101040004046FFF78BFA4C21204600F0C1FA206D94
:1010500020F0010020654846EEE770B5044600F137
:101060004C0528462AF05AFF204652F04FFB044612
:1010700028462AF0D5FF204670BD000070B5054611
:101080000A4E30462AF04AFF05F14C0420462AF069
:1010900045FF2846FFF7BBFF054620462AF0C0FF64
:1010A00030462AF0BDFF284670BD00000C0200202B
:1010B0002DE9F04116460F46054600F14C04204646
:1010C0002AF02CFF324639462846FFF7F9FE05463E
:1010D00020462AF0A5FF2846BDE8F0812DE9F04121
:1010E000044600F14C0738462AF018FFE0688107F3
:1010F00012D0800601D5A66A04E0A16960680844A0
:101100002169461A204601F043FA0022054631467D
:101110002046FFF7D5FE00E0002538462AF080FF84
:101120002846BDE8F0812DE9F04118B1BDE8F04155
:10113000FFF7D4BF0B4E002530462AF0EFFE0A4CD5
:101140006F1E07E02046FFF7C9FF00B13D46206D46
:1011500020F00104002CF5D130462AF061FF28462A
:10116000DFE700000C020020240400202DE9F047F6
:1011700016468846070010D006F14C0081462AF03A
:10118000CDFE3046FFF743FF18F8010B61280DD064
:10119000722805D0772841D105E00020BDE8F0870E
:1011A0000125002405E00225042402E0082448F279
:1011B000020518F8010B2B2806D0622809D018F870
:1011C000010C74280AD00BE045F0030544F002043A
:1011D000EFE745F0040544F00104EAE744F01004A9
:1011E000384621462AF046FF411C17D000213161C4
:1011F00071604FF40071F560F1617061200704D5F2
:10120000304602220021FFF75BFE306D40F0010006
:10121000306548462AF004FF3046BFE70026F8E76D
:101220002DE9F04115460E460746214C20462AF08E
:1012300075FE2A4631463846FFF798FF0546204698
:101240002AF0EEFE2846BDE8F0812DE9F0410E4679
:101250008046174D28462AF061FE164C206DC107C6
:1012600004D0410804D020F00104F7E7224612E040
:101270005420FFF738F9070017D0206D47F001011F
:10128000084354212065384600F0A2F907F14C00CC
:101290002AF074FE3A4631464046FFF767FF04469F
:1012A00028462AF0BDFE2046CDE70024F8E70000DE
:1012B0000C0200202404002010B5002001F01EFBC9
:1012C000AFF30080BDE8104001202AF0BBBE30B56E
:1012D00003461D783DB10A4612F8014B1CB1AC42E1
:1012E000FAD15B1CF5E7181A30BD40EA010310B5CE
:1012F0009B070FD1042A0DD310C808C9121F9C42A6
:10130000F8D020BA19BA884201D9012010BD4FF097
:10131000FF3010BD1AB1D30703D0521C07E00020E4
:1013200010BD10F8013B11F8014B1B1B07D110F841
:10133000013B11F8014B1B1B01D1921EF1D1184644
:1013400010BD10B5431C02E010F8011B71B18107FC
:10135000FAD14FF0013202C88C1A8C4314EAC21140
:10136000F9D0C01A0A0603D0C01E10BDC01A10BDA5
:101370000A0401D0801E10BD0902FCD0401E10BD21
:10138000032A40F2308010F0030C00F0158011F8B1
:10139000013BBCF1020F624498BF11F801CB00F889
:1013A000013B38BF11F8013BA2F1040298BF00F8DD
:1013B00001CB38BF00F8013B11F0030300F0678058
:1013C000083AC0F0088051F8043B083A51F804CBC1
:1013D000A0E80810F5E7121D5CBF51F8043B40F887
:1013E000043BAFF30080D20724BF11F8013B11F892
:1013F00001CB48BF11F8012B24BF00F8013B00F8D6
:1014000001CB48BF00F8012B7047431A28BF9A420E
:101410007FF6B6AF10441144032A40F2268010F044
:10142000030F1EBF11F8013D521E00F8013D10F0E0
:10143000030F7FF4F6AF11F0030300F06D80083A5C
:10144000C0F00B8051F8043D083A51F804CD40F843
:10145000043D40F804CDFFF7F3BF121D5CBF51F807
:10146000043D40F8043DAFF30080D20724BF11F8DB
:10147000013D11F801CD48BF11F8012C24BF00F83F
:10148000013D00F801CD48BF00F8012C704710B5B0
:10149000203AC0F00B80B1E81850A0E81850B1E82D
:1014A0001850A0E81850203ABFF4F5AF5FEA027C6C
:1014B00024BFB1E81850A0E8185044BF18C918C09C
:1014C000BDE810405FEA827C24BF51F8043B40F83D
:1014D000043B08BF7047D20728BF31F8023B48BF22
:1014E00011F8012B28BF20F8023B48BF00F8012B60
:1014F0007047431A28BF9A427FF6C9AF104411447F
:1015000010F0030F1EBF11F8013D521E00F8013DFF
:1015100010F0030F7FF4F6AF103AC0F00A8010B558
:1015200031E9185020E91850103ABFF4F9AFBDE87E
:101530001040530724BF31E9081020E9081044BFC8
:1015400051F8043D40F8043D12F0030F08BF704706
:10155000D20728BF31F8023D48BF11F8012C28BF3F
:1015600020F8023D48BF00F8012C704702F0FF034D
:1015700043EA032242EA024200F00AB802F0FF0303
:1015800043EA032242EA024200F024B84FF000028C
:101590000429C0F0128010F0030C00F01B80CCF185
:1015A000040CBCF1020F18BF00F8012BA8BF20F8F3
:1015B000022BA1EB0C0100F00DB85FEAC17C24BF47
:1015C00000F8012B00F8012B48BF00F8012B7047F1
:1015D0004FF0000200B5134694469646203922BFCC
:1015E000A0E80C50A0E80C50B1F12001BFF4F7AF17
:1015F000090728BFA0E80C5048BF0CC05DF804EBF9
:10160000890028BF40F8042B08BF704748BF20F866
:10161000022B11F0804F18BF00F8012B704700001B
:1016200030B44FF0013C50F8042B51F8043BCCFA95
:1016300052F4D51A20D1FCB950F8042B51F8043BD0
:10164000CCFA52F4D51A17D1B4B950F8042B51F88A
:10165000043BCCFA52F4D51A0ED16CB950F8042BD5
:1016600051F8043BCCFA52F4D51A05D1002CDAD04B
:1016700030BC4FF00000704729BAB1FA81F111F087
:101680001801D1F120008440F2D1CA40CB4012F0C1
:10169000FF0213F0FF0330BCD01A70477047704749
:1016A0007047000070B5064C7C44064D7D4404E054
:1016B0002046016808448047241DAC42F8D170BD23
:1016C0003C74050050740500004870472005002058
:1016D000704710B5FFF7F8FF083010BD10B5FFF7E1
:1016E000F3FF203010BD704770477047704738B522
:1016F00004460A4600206946AFF30080002808BF70
:1017000038BD02460099204601F006F9012038BD97
:10171000012002F0ACBAF8B5AFF300800546002016
:101720000C46102000BF0646A819A0420DD932462B
:1017300069460020AFF30080070008BF02F097FA67
:101740000098A04218BF0546C419FFF7C2FF056004
:101750000746F01D20F007004619284600F00AF859
:10176000B44208BFF8BDA21B31463868BDE8F84056
:1017700001F0D2B800210160C0E901100C302AF05C
:10178000FDBB102070472DE9F0470D469946924663
:10179000044600F124080168880604D5E06921F0B8
:1017A0001001216000E00120A84201DD471B00E09C
:1017B0000027A1697A1902EB0900081AA0612078B4
:1017C000C00602D42046FEF7F1FF002608E0D4E967
:1017D00001211AF806009047206A401C761C2062FE
:1017E0004E45F4DB2078C0060AD52046FEF7DEFF22
:1017F00006E0D4E9012130209047206A401C206295
:10180000381EA7F10107F4DC07E0D4E9012118F83C
:1018100005009047206A401C2062281EA5F10105A2
:10182000F3DC2046FEF7D8FF2078000602D5022020
:10183000BDE8F0870120FBE72DE9FF4F0C461E466F
:101840004FF0FF378BB0D2E90001DDF860800A90DD
:101850008A46C1F30A5505B93D46002108464FF0B6
:101860000000BAF1000F00F4400005DA00EB800040
:101870004FF4400101EA50004FEA9059B9F1010FCD
:1018800000DDB9460A9850EA4A000ED044F61050DE
:10189000A5F2FF3545432F14B8F1000F1ED0754255
:1018A000291E1EDDC9F100021CE0B8F1010F4FF046
:1018B000000001D0302103E0F24305E02154401C38
:1018C000B042FBDB30460022002121540B99C1F8C5
:1018D0000880C1E900200FB0BDE8F08FBD1B6D1C72
:1018E000DEE74A4600DA694206A801F06FFF06AB60
:1018F00093E8070003AB83E8070050460A9951F0CC
:101900009BF98DE80700A0F500501F380090039860
:10191000002D0ADD42F21F014A460844002303A9B4
:101920000390684651F046FC09E0A0F500504A4695
:101930001F38002303A90390684651F065FC8DE829
:1019400007000004000C03D04FF0FF30410800E016
:101950001046B8F1000F03D00022009215461EE099
:10196000751E05D400F0FAFF303262556D1EF9D5B0
:10197000B3460122084302D000227F1C04E02078F5
:10198000302801D100227F1E002A099784D01DE053
:10199000112D07DA00F0E2FF303262556D1C50EA7B
:1019A0000102F5D1084302D00098C8B10EE0002131
:1019B000681E05E0235C625C63542254401E491C8F
:1019C0008142F7DBAB46A81B401E0990002004F8BB
:1019D0000B000B98099AC0F80880C0E9002B7AE741
:1019E00011264FF0000857E72DE9F04F88460446CE
:1019F000D21D22F0070191B0D1E90001CDE90A0121
:101A000051F04EFD02460B98C00F01D02D2007E08B
:101A10002068810701D52B2002E0202101EAC000C7
:101A2000032A099001D0072A05DB034641462046D8
:101A300001F0B0F90BE12078800601D5E06900E003
:101A40000620B8F1650F814606D0B8F1660F18D0B0
:101A5000B8F1670F70D131E00020B9F1110F00909B
:101A600001DB112301E009F101030AAA01A90CA875
:101A7000FFF7E2FEDDE90C70002609F1010583465F
:101A800047E001204B4600904FF000470AAA01A909
:101A90000CA8FFF7D1FEDDE90DB00C995D460026DC
:101AA00010B909F101000D18B9EB050003D4C0F11C
:101AB000FF3609F10105A5EB09002BE0B9F1010F93
:101AC00001DA4FF001090020B9F1110F00904846EA
:101AD00001DD112300E003460AAA01A90CA8FFF7C3
:101AE000ABFEDDE90C704D460026834620780007EA
:101AF0000AD4AB4500DA5D4601A8012D04DD411989
:101B000011F8011C302907D04F4502DA17F1040FF4
:101B100004DA012082460FE06D1EEEE7002F02DCA2
:101B2000ED1B3E4403E0781CA84200DD7D1CB81B81
:101B300000F1010A4FF000472078000703D4AA45BE
:101B400001DB4FF0FF3A0021B7F1004F0DF14308E0
:101B50008DF8431024D002202B23002F01DA7F427E
:101B60002D230A21021EA0F1010000DC5FB197FBCA
:101B7000F1FC97FBF1F201FB1C7C17460CF1300CD9
:101B800008F801CDEEE7A8F10100037021880905EE
:101B900001D5452100E06521A0F1010800F8011CF4
:101BA00009980FA9A1EB0807FF1D00B101204119F9
:101BB00001EBEA70A1693844081A401EA061207840
:101BC000C00602D42046FEF7F1FD099828B1D4E9F9
:101BD00001219047206A401C20622078C00622D54F
:101BE0002046FEF7E3FD1EE0002E04DBB34502DDD8
:101BF00001A8805D00E03020D4E901219047206AEF
:101C0000401C2062761CAAF101005FEA000A0AD19A
:101C1000FFF764FDC0680168405CD4E9012190478A
:101C2000206A401C2062281EA5F10105DCDC07E0CB
:101C3000D4E9012118F8010B9047206A401C20626A
:101C4000381EA7F10107F3DC2046FEF7C5FD03208F
:101C500011B041E601694A1C02610878704700B57D
:101C60008FB0CDE901310021059105497944CDE9D5
:101C7000031011466846FEF72BFF0FB000BD0000B1
:101C8000E5FFFFFF0A6802F8010B0A607047D1E91F
:101C900000239A4202D2531C0B601070704710B59B
:101CA000436913B1AFF3008001E0FEF7B8FD0120F6
:101CB00010BD127800F124010A7000224A7001223E
:101CC000EDE711684FF0FF32E9E710B5436913B152
:101CD000AFF3008001E0FEF71BFE012010BD12886B
:101CE00000F1240182840022C2840122EDE7116800
:101CF0004FF0FF32E9E700002DE9F0418046D21DA8
:101D000022F007020025D2E90002F52915A614D019
:101D1000011E72F1000106DA0023D0EB030063EB31
:101D2000020211A608E0D8F800108B0701D50FA613
:101D300002E0490701D50EA601251146002408F14D
:101D4000240704E000F00AFE30323A55641C50EAE1
:101D50000102F7D12B46324621464046BDE8F0410C
:101D6000FFF711BD000000002D0000002B00000057
:101D7000200000003A2800D2303820F02002412A0A
:101D800001D3A2F13700884201D34FF0FF307047F2
:101D90002DE9FF4F1C4691464FF0FF3581B00021E1
:101DA0008A468846D4E90167A16902986D1C884774
:101DB000216A834688470028F6D1BBF1FF3F0CD04B
:101DC000002F26F4C0661ADD700615D5BBF12B0F67
:101DD0000AD0BBF12D0F0FD104E04FF0FF3005B05A
:101DE000BDE8F08F46F48066A16902986D1C8847B3
:101DF0007F1E8346002F02DDBBF1300F03D0B9F107
:101E0000000F2AD025E0A1696D1C02987F1E46F4C0
:101E100000768847002F834605DDBBF1780F06D09A
:101E2000BBF1580F03D0B9F1000F10D011E0B9F198
:101E3000000F02D0B9F1100F0BD1A1696D1C0298EF
:101E40007F1E26F4007688478346102000E0082095
:101E500081464FEAE970009017E00A20F8E7434610
:101E6000AAFB0928DDF800C07F1E03FB098046F4A9
:101E7000007605F101050AFB0C0112EB0B0A029832
:101E800041EBEB78A16988478346002F06DD494680
:101E90005846FFF76FFF5FEA000BE0D5E169029853
:101EA0008847B00502D46FF0010098E7F00718D119
:101EB000700610D55146700505D50023D1EB0301FE
:101EC00063EB080200E042462068031D23600068BF
:101ED000C0E9001205E02068011D21600068C0E92A
:101EE00000A828467BE700000268114413780160CF
:101EF00018467047D16005497944516104497944D5
:101F0000116200211161114600F0BEBFEDFFFFFF1D
:101F1000DF480300426842B1016811F8013B23B178
:101F2000521EC0E90012184670470121C160881E88
:101F3000704742685AB1C368016843B983688B42ED
:101F400005D0491E521CC0E90012002070474FF016
:101F5000FF3070470023036001F0EEBB2DE9FF4F17
:101F60004FF000089B461446454683B0D2E90196DF
:101F7000CDF80080CDF804809169DDF848A0049880
:101F8000884707465BEA0A0005D009E0A169049882
:101F90006D1C88470746216A384688470028F5D1D6
:101FA000781C03D05FEAC97005D01BE04FF0FF300A
:101FB00007B0BDE8F08F2068011D2160D0F80080D7
:101FC00010E05FEAC97007D16A464046B9B200F036
:101FD00071FC411C31D08044A1696D1C0498761EAF
:101FE00088470746002E14DD781C12D0BBF1000094
:101FF00007D03B46DDE9101201F0D8FB0028E0D104
:1020000007E0BAF1000FDCD13846216A8847002882
:10201000D7D0E16904988847BAF1000F06D1002DA6
:1020200004DD5FEAC97001D188F80000A068B04201
:1020300003DDBAF1000F03D016B16FF00100B7E76E
:102040002846B5E72DE9FF5F9B46144600273D462D
:102050009169D2E90196DDF840A001988847804651
:102060005BEA0A0005D009E0A16901986D1C884768
:102070008046216A404688470028F5D1B8F1FF3FE5
:1020800003D05FEAC97005D014E04FF0FF3004B010
:10209000BDE8F09F2068011D216007680AE05FEA43
:1020A000C97001D127F8028BA1696D1C0198761EB9
:1020B00088478046002E15DDB8F1FF3F12D0BBF1F6
:1020C000000007D04346DDE90E1201F06FFB002847
:1020D000E5D107E0BAF1000FE1D14046216A884717
:1020E0000028DCD0E16901988847BAF1000F05D1DA
:1020F000002D03DD5FEAC97000D13880A068B042CE
:1021000003DDBAF1000F03D016B16FF00100BEE796
:102110002846BCE770B50D4601461446D3685069A1
:102120002A4629F0DDFF002807DA411C07D0E168C4
:1021300020F0004041F48041E160281A70BD204643
:1021400000F0F2F94FF0FF3070BDC168002202606C
:1021500021F4805141F0400111F4C06FC16001D001
:102160008260704702694168891AC269891A816070
:1021700070472DE9F0470446C06840F48000E060F5
:10218000010312D520F40020E060810606D4E26A43
:1021900061688A4200D80A46511A216040F4001052
:1021A000E06094F82500BDE8F08720F40010E060BE
:1021B000800602D5204600F00EFAE06842F2810166
:1021C0004FF0FF390140012903D0204600F0ACF95F
:1021D000B6E02168002600290ADAC94340F480509D
:1021E0002160C4E902606068411C61600078DAE740
:1021F00044F2400108420CD020F4A04040F04000DE
:102200002660E06021696068401AE169401AA060B8
:1022100096E0216991B9C00310D4E069FEF763F933
:102220002061B0B1E06840F4006010F4407FE060ED
:1022300002D140F48070E06020696060E068D4F80A
:1022400014A0C1061AD5C0030ED5204600F0A0F98F
:1022500014E004F1240020610120E061E06820F432
:10226000407040F48060E6E721696068401AA16927
:102270000144504629F080FF0028A6DBE068C00337
:102280002AD56168E06A884200D808462169451A63
:10229000E069471B1BD02046D4F8188000F078F97D
:1022A00008EB05015046C4F8188029F065FF0028A6
:1022B0008BDBE06840F40030E060000202D5A069EA
:1022C0002844A061E1692069C91B45180DE020463A
:1022D00000F05EF9E769F5E725696168D4E906076A
:1022E000491BE56208446560A061E06820F01000C9
:1022F00010F4C06FE06002D0204601F041FBE068BE
:1023000040F48050C4E90260000205D52069E06213
:1023100060606FF0010046E7224639462846FFF725
:10232000F9FE411C0CD02918E16258B1401E206012
:10233000681C6060E06840F40030E060287832E7B4
:10234000484630E765602046FFF7FFFEF8E72DE9D5
:10235000F04705460C46C86820F4201040F4800081
:10236000C860800602D5084600F035F9E06841F201
:1023700082014FF0FF390140022903D0204600F0CE
:10238000D3F8B5E000F42041B1F5004F0FD1C00300
:1023900006D56168E06A884200D80846606006E0B9
:1023A0002069E0626060606929F04EFEA061A0686B
:1023B0000022EEB200280DDAE1688B050AD4C04392
:1023C000A06041F490302260E0606068411C616070
:1023D0000670A5E0E0689046226040F40050E0609E
:1023E000206968BB606929F043FE012704F12405D8
:1023F000A0B1A08910F4407F08D0E069FEF773F81F
:10240000206118B1E06840F4006016E0E7612561E2
:10241000E06820F4407040F480600EE0E069FEF770
:1024200062F800282061F1D0E06840F4006010F408
:10243000407FE06002D140F48070E060206960601D
:10244000E06825696FF0010AC1051FD56168E06A7F
:10245000884200D80846411B04D02246284600F096
:102460006DF8F0BBE068010203D5E562C4E90158EC
:1024700054E0691CE1626160E16940F48030491E0A
:10248000C4E9021030462E70BDE8F087010202D583
:1024900000F480320AE06068411C61600670E06808
:1024A0000A2E40F48030E06006D00022E16A6068C5
:1024B000814203D90B4602E00122F7E70346A789D0
:1024C0005B1B7F0503D4E7699F4200DDE2B18142D7
:1024D00000D80146E5620F1AC4E90158002B09DD56
:1024E00000E005E022461946284600F027F808B12A
:1024F0004846C9E747B1A069E5626560C01BA061B5
:10250000E06840F01000E060E068000208D5616813
:10251000A069E562491B08446560A0615046B3E7C5
:102520003046B1E7FEF799BDC16821F4001141F0D2
:102530008001C16000218160016070472DE9F04792
:10254000814614460E464FF0FF383248D568576929
:10255000054209D03846A16929F00EFE002811DB9A
:102560002C48C0430540E5602B4632464946384674
:1025700029F006FEA16920F00042B21A1144002899
:10258000A16103D02046FFF7CFFF4046BDE8F087AA
:1025900070B504460569C06A6168884200D808467B
:1025A000E16821F42011E160C90312D5A84208D0E6
:1025B0002246411B2846FFF7C1FF10B14FF0FF3004
:1025C00070BD0020E562C4E90150E06820F480306D
:1025D000E060002070BD10B50446C06820F0200007
:1025E000E060A16AA06988420DD02046FFF7D0FFC5
:1025F000E06820F4405040F01000E060A06AA06164
:102600002069E062606044F24001E0688843E06075
:1026100010BD000010000200CA68431C0FD00D4B13
:102620001A420CD1D3070AD081F825004B680B63FE
:1026300000238B6012F0C06F0B6003D004E04FF0FA
:10264000FF30704742F00072034B1A40034B1A43AD
:10265000CA60704780200800BFFFDFFF00104800FD
:1026600070B50C46064601F14C05284629F056FC8B
:1026700021463046FFF7D0FF0446284629F0D0FC1B
:10268000204670BD2DE9F04704461E4690460D4693
:10269000C7684C30814629F041FCB80714D0780255
:1026A00012D44046B8F5807F09D0B0F5007F06D03F
:1026B000B8F5806F08D1012604F1240506E0701EEC
:1026C0006FF07F41884201D3012409E02561E66172
:1026D0006560E06820F4706040EA0800E060002473
:1026E000484629F09DFC2046BDE8F08710B56548B6
:1026F0005421FEF76DFF64485421FEF769FF6348DB
:102700005421FEF765FF62485E49624A624B0160F0
:102710005D4810605D4A1A60431C0B65511C0165E1
:102720000120106557484C3029F028FC56484C30A1
:1027300029F024FC55484C3029F020FC574829F05A
:102740001DFC58484F4A56A17844FEF769FD20B950
:10275000544878440A3801F083FA54484A4A52A14E
:102760007844FEF75DFD20B9504878440A3801F0FE
:1027700077FA4F48454A4CA17844FEF751FD20B9FD
:102780004B4878440A3801F06BFA40233D48DC009E
:1027900000212246FFF776FF20B1424878445438A2
:1027A00001F05EFA3848224640230021FFF76AFF15
:1027B00020B13E487844543801F052FA334822465A
:1027C00010230021FFF75EFF002806D03848784428
:1027D000BDE81040563801F043BA10BD2B482DE932
:1027E000F041006D2D4E20F00104304629F096FB9B
:1027F000244D4C35284629F091FB2248FEF707FC72
:10280000284629F00DFC284629F096FB1E4D4C3534
:10281000284629F083FB1C48FEF7F9FB284629F0DF
:10282000FFFB284629F088FB184D4C35284629F037
:1028300075FB1648FEF7EBFB284629F0F1FB28460E
:1028400029F07AFB14E0206D20F0010504F14C0022
:10285000074629F063FB2046FEF7D9FB384629F0EE
:10286000DFFB384629F068FB2046FDF777FE2C4653
:10287000002CE8D1304629F0D3FB084829F05CFB56
:10288000BDE8F0812404002078040020CC0400205E
:102890000002002004020020080200200C02002098
:1028A00072000000F03B050077000000DF3B0500F0
:1028B000B83B05002DE9F04116460C460546FDF7EC
:1028C000BFFD036893F80101012807D0FF2C12D83F
:1028D000185D80B101202C70BDE8F081D3F80701AC
:1028E0003246214603F20713C7182846BC46BDE806
:1028F000F041002360474FF0FF30EDE710B501F0E5
:1029000097F9BDE8104001F08DB9801A0844401EC7
:10291000491E88431044704770B5144605468C46DE
:102920004368002B18BF634538BF1846F8D30268C8
:102930001044604508D06646604604220821FFF72F
:10294000E4FF811B8446641A2946CCF80040BDE8A8
:10295000704000220CF10400FDF7CFBD30B5B0F19E
:102960000A0271F100034FEA900E4EEA817EB0EB4D
:102970000E0061EB91014FEA101E4EEA017E10EB52
:102980000E0041EB11114FEA102E4EEA016E10EBD2
:102990000E0041EB11214FEA104E4EEA014E10EBB2
:1029A0000E0041EB1141401841F100014FEAD00007
:1029B00040EA41704FEAD1014FEA810444EA907441
:1029C00010EB800544EB01046D1944EB0404521B29
:1029D000A3414FF0000348BF0A3200D530BD401C70
:1029E00041F1000130BD10B501F035FB00F00800E9
:1029F00010BD2DE9F0410F46134615460A4606461E
:102A000000210846FDF7ACFE0446401CFDF76BFDB7
:102A1000306030B1611C2B463A46BDE8F041FDF70D
:102A20009FBE4FF0FF30BDE8F08100000FB47CB5D1
:102A30000C0009AA009001D02044401E084B7B44A2
:102A4000694601900898FFF70AF905461CB1002075
:102A50006946FFF717F928467CBC5DF814FB0000B7
:102A60004DF2FFFF7CB51D4616460C00009001D0CC
:102A70002044401E074B7B442A466946019030465D
:102A8000FFF7EDF805461CB100206946FFF7FAF89C
:102A900028467CBD15F2FFFF2DE9F04F04460D4698
:102AA000D21D22F0070089B0D0E900974846394688
:102AB00050F0F6FC0246F80F01D02D2307E0206805
:102AC000810701D52B2302E0202101EAC0038DF804
:102AD00020300BB1012000E00020032A824601D003
:102AE000072A04DB2946204600F054F93FE120780C
:102AF000800601D40D2500E0E569C7F30A560D2DC7
:102B000049DA00214FEA175B08464FF00000002F1A
:102B100000F4400007DA00EB80004FF4400100EBC6
:102B2000D07001EA60008115012901DD4FF0FF310D
:102B300000224FEA850CBCF1180F06D31346ACF106
:102B400018004FF08052C24003E04FF4801323FA84
:102B50000CF30CF10C0CBCF1200F04D3ACF1200CE5
:102B600009FA0CF001E007FA0CF000294FF00048D8
:102B700001DD18B90FE00ED140450CD319EB020965
:102B80005F4121B9404502D19F4329EA0209BBEBCD
:102B9000175F00D0761C2088000502D57B4878445A
:102BA00002E07A487844193808AA302302F80A303B
:102BB000037C0AF10101002E0AF1020A53546A460D
:102BC00002DC4FF0300101E04FF031014FF001081D
:102BD0008DF8001002D0A6F2FF3603E059EA470153
:102BE00000D06B4E002D02DC2178090704D54FF090
:102BF00002082E218DF80110C44600210BE0C7F316
:102C000003433F01C35C491C6D1E02F808300529CF
:102C100008F1010801DA002DF1DC00210CE000EBE5
:102C20001973491C1B786D1E082902F808304FEAF9
:102C3000091908F1010801DA002DF0DC21688B0682
:102C400002D516E0A8F10108E04505DD02EB080316
:102C500013F8013C302BF5D0B8F1000F09DD02EB81
:102C6000080313F8013C2E2B03D1090701D4A8F166
:102C70000108002D05DD3E2102F808106D1E08F147
:102C80000108407C002E02F8080008F1010804DA6F
:102C90002D20764202F8080002E02B2002F80800FE
:102CA0000A214FF47A70864208F101080BDB96FB8B
:102CB000F0F3303302F8083096FBF0F308F1010826
:102CC00000FB136601E0642E0CDB642096FBF0F33E
:102CD000303302F8083096FBF0F308F1010800FBEE
:102CE000136601E00A2E06DB96FBF1F0303002F8A5
:102CF000080008F1010896FBF1F001FB106030308C
:102D000002F80800A16908F1010808EB050202EBCE
:102D10000A00081AA0612078C00602D42046FDF7F8
:102D200045FD216A08AE01EB0A00206204E0D4E907
:102D3000012116F8010B9047BAF1010AF7D2207869
:102D4000C00602D52046FDF731FD6E4609E016F8B3
:102D5000010B3E280FD0D4E901219047206A401C86
:102D60002062B8F10108F2D22046FDF735FD09B026
:102D70000320BDE8F08F206A2844206203E0D4E9F4
:102D80000121302090476D1EEBD3F8E79A12050021
:102D900002FCFFFF2DE9F0411F46044603260168AF
:102DA000072A01F4006004DB08B116A505E016A5AA
:102DB00003E008B115A500E015A521F01000206082
:102DC000A069C01EA0610FB1401EA0612046FDF7A2
:102DD000EDFC4FB1D4E9012138469047206A401CF0
:102DE0002062C01C206206E0206AFAE7D4E90121D3
:102DF00015F8010B9047761EF8D22046FDF7ECFC43
:102E0000BDE8F0814E414E006E616E00494E4600B5
:102E1000696E66002DE9F04114460D46074601F142
:102E20004C06304629F07AF8094B7B442246294665
:102E30003846FEF714FF0446287B000601D54FF004
:102E4000FF34304629F0ECF82046BDE8F081000060
:102E5000F708050000B58DB0099000920B904FF077
:102E6000FF300A9000200C900548784406900548F1
:102E700078446A46079009A8FFF73CF80DB000BDFA
:102E8000A7F0FFFFBFF0FFFF2DE9F34F4FF0000A5F
:102E90000C4656468DB001200C9001F10C000B90B1
:102EA00062690B9801219047051E2DD0252D2CD04D
:102EB000216A8847C0B162690B9801219047216A55
:102EC00088470028F7D16269411E0B98904700E0BF
:102ED000761CA1690D988847216A88470028F7D198
:102EE000E1690D988847DBE7A1690D988847A842FA
:102EF000074601D1761CD3E7E1690D9888477F1C0E
:102F000002D1BAF1000F6FD06BE162690B98002714
:102F10003D46394690472A2804D162690B98012121
:102F200090470125DFF8D08262690B980121904714
:102F3000A0F130010A290AD24745E5DC07EB8701F9
:102F400000EB4107303FDFD445F01005ECE7E90620
:102F500001D46FF000476C280AD04C2814D06828A0
:102F600015D06A280DD074281CD07A281AD01DE0FC
:102F700062690B98012190476C2802D045F0040546
:102F800014E045F002050DE045F020050AE0626915
:102F90000B9801219047682802D045F0080505E00C
:102FA00045F4006562690B9801219047C4E9015717
:102FB00065283DD019DC58287AD00CDC452837D05C
:102FC00004DC252826D041289ED131E046282FD088
:102FD000472899D12CE05B2877D0612828D0632836
:102FE0007CD0642823D15AE0F6E06F2848D008DC72
:102FF00066281DD067281BD0692821D06E2816D1DD
:1030000027E0702845D0732868D0752847D07828E5
:103010000DD14DE0A1690D988847252805463FF45C
:1030200069AFE1690D9888476D1C3FF46AAFD8E03D
:103030000D9923466A466FF0010050F0B6FEC5E0D8
:1030400045F0400023464FF000026060A80736D4E8
:103050003EE0E8077FF447AF2068011D216000686B
:10306000290501D506701BE7290701D5068017E75A
:10307000A90703D5F117C0E9006111E706600FE762
:1030800045F0400023464FF008026060A80716D4C0
:103090001EE040F60E0125EA0100606016E045F0F2
:1030A000400023464FF00A026060A80707D40FE0F3
:1030B00045F040006060A80708D5234610220D990E
:1030C0006FF00100FEF764FE80E007E01022234667
:1030D0000D996FF00100FDF7DDFD77E04FF000097D
:1030E00063284F46C8464B46CB4602D05B2806D0E5
:1030F00038E0E80601D40120A060012732E06269CF
:10310000D4F80CB00B98012190475E2807D14FF0FE
:10311000010949466269D4F80CB00B9890472169BF
:1031200039B900210A4603AB43F82120491C08297C
:10313000FADBD8B3216949B308F1010862690B9839
:10314000012190475D28F4D1B9F1000F09D000208A
:1031500003A951F82020D24341F82020401C082820
:10316000F7DB03AB2069002820794FEA40701ED0BE
:103170005B462246CDF80080CDE901970D990028E5
:103180006FF0010020DAFEF75DFF1FE0C11703AA10
:1031900000EBD1614B1121F01F0102EB8302411AB8
:1031A00013680120884003431360C7E719E00D99B5
:1031B000224600286FF00100009702DA28F03EFF57
:1031C00004E0FDF70DFE01E0FEF7C8FE00280ADA74
:1031D000401C06D10C9820B14FF0FF300FB0BDE875
:1031E000F08F5046FAE7E90701D10AF1010A0644D7
:1031F00000200C9054E60000CCCCCC0C2DE9FF4F05
:1032000006468BB00878FF2806D0491C2D2805D02B
:1032100000244FF0000908E000200CE00124F8E74A
:1032200009EB8903491C00EB43090878FF28F7D113
:1032300014B1C9F100008146107800252C46AA4639
:1032400029462D2801D02B2804D1521C2D2813D01B
:10325000002082468B461078FF280FD04FF0000CDC
:103260000A21521CA5FB017804FB018105FB0C110E
:10327000C5194BEB0104EEE70120EAE700210846FF
:103280004FF00000BAF1000F02D000EB80004008C0
:10329000C0F38157012F01DD4FF0FF370E9955EA3A
:1032A000040009EB01080BD04FF0020918F5FA7F72
:1032B00016DA4FEACA70002F706008DD012007E0BF
:1032C0004FEACA70C6E900B00FB0BDE8F08F002029
:1032D0003060FDF7BDF8C0F800901821084616E0F0
:1032E000B8F5FA7F18DD002F02DAF748784401E0DC
:1032F000F6487844D0E90010C6E9001040EACA70E8
:103300007060FDF7A5F8C0F80090142108460FB0D2
:10331000BDE8F04F50F0E2BC002108464FF000003D
:10332000B8F10001099002DAC7F1000200E03A4664
:1033300001DAC8F1000106A800F048FA06AB93E8EC
:10334000070003AB83E8070044F23E005BEA040198
:103350000090584604D144F21E012C465D4600916F
:10336000210C0904014306D10099240444EA1544C0
:103370002D041039009104F07F41014306D10099DA
:10338000240244EA15642D020839009104F07041CA
:10339000014306D10099240144EA15742D01091F47
:1033A000009104F04041014306D10099A40044EA91
:1033B0009574AD00891E009104F00041084304D1CA
:1033C00000986D196441401E00904FF001033A4689
:1033D0006846B8F1000FCDE9014503A902DD4FF0C1
:1033E00028FF01E04FF0FBFEBAF1000F04460D4646
:1033F00001D084F00044002108464FF000000999F4
:1034000040F2FF77484010F00C0F07D124F0004045
:10341000284303D0C4F30A50B84212D1FDF718F87C
:10342000C0F80090C4F30A50B8420AD1A8487844C2
:10343000D0E90010C6E9001004F0004108437060B4
:1034400042E7C6E900543FE72DE9FF4F1F464FF022
:10345000000A4FF0FF38454691B0D7E90146CDF854
:103460003CA0FEF73BF9C0680168405C1090B96968
:1034700012986D1C8847396A814688470028F6D122
:10348000B9F1FF3F0AD0002E24F4D06411DDB9F168
:103490002B0F08D0B9F12D0F0BD102E0404615B02B
:1034A00013E744F48064B96912986D1C8847761E4E
:1034B0008146600504A901D52D2000E02B20002EB7
:1034C00001F1010B0DF130088DF810003FDDB9F16D
:1034D000690F08D0B9F1490F05D0B9F16E0F02D0CC
:1034E000B9F14E0F1CD13B4601A8009580E850026F
:1034F000DDE912126FF0020050F05BFCC11CCED16E
:103500000EE0B96912986D1C884781461398761EA3
:1035100044F4007405600F98401C002E0F9016DDD7
:10352000B9F1300FEDD0B9F1780F02D0B9F1580FE1
:103530000DD10F9801280AD13B46CDE90054DDE9B1
:103540001212001F029650F032FCC11CA7D1109934
:1035500089453ED144F0800406E01399681CAAF125
:10356000010A44F400740860B9696D1C1298761E53
:10357000884730288146F0D02BE01099894505D145
:10358000200603D4761E44F0800418E0484650F02C
:10359000B6F808B3761E0DF123029345A9F1300069
:1035A00044F4007406D20BF8010B200607D5AAF1EB
:1035B000010003E0200602D40AF101008246A005C2
:1035C00002D51399681C0860B96912986D1C884768
:1035D0008146002ED1DC53E0002E51DDB9F1650F9C
:1035E00002D0B9F1450F4BD1A00549D5B9696D1C81
:1035F0001298761E24F440748847002E81460CDD14
:103600002B2804D0B9F12D0F07D144F48074B96987
:1036100012986D1C8847761E8146E00501D52D2144
:1036200000E02B2108F8011BCDF8008021E0761E78
:103630000DF13901884544F400740CD2A9F1300031
:1036400010F0FF0088F8000002D10099884509D9E0
:1036500008F1010806E0E00501D51E4801E042F24C
:103660000F708246B96912986D1C8847814613987D
:103670000560002E04DD484650F041F80028D6D100
:10368000F96912988847FF2053468BF8000088F8A4
:10369000000000200A900B9004AA0CA90AA8FFF7CA
:1036A000ADFDA00502D46FF00100F8E614F0240F80
:1036B00012D0E0071CD13868DDE90A12031D3B6017
:1036C0000068C0E9001213E03055050022550500DE
:1036D000E6530500F1D8FFFF0AA968464FF0FCFF4A
:1036E000E00705D13868009A011D39600068026062
:1036F0002846D4E60FB40B0010B54FF000048AB092
:103700000FA900910E99CC60234C7C44234A7A4443
:10371000CDE9064200D004236FF00042CDE901322A
:103720001F4A7A446B4608920246002050F03DFB47
:103730000AB010BC5DF814FBF0B507464FF0FF303F
:103740001E4615460C463B4685B06A460091CDE9BB
:10375000010131460020049004A8FFF7CBFF049933
:103760000346601825B109B1024600E022462A60EE
:1037700000290ED0002B02DD0099814209D03B4682
:103780006A463146001B0094CDE9010404A8FFF706
:10379000B1FF05B0F0BD000007E8FFFF21E8FFFF23
:1037A000BB30030000F0A0BC00F0E6BC10B508E0A0
:1037B00030F8024B9C4204D10AB1002010BD012018
:1037C00010BD491EF4D2104610BD00002DE9F0478F
:1037D000814616468AB0354878440DC88DE80D00FC
:1037E00032487844801C03AC0DC884E80D0041F6D3
:1037F0009B300844372190FBF1F290FBF1F5A5F1E5
:10380000800501FB12041B3C02D56442012000E04C
:103810000020DFF898A080460027FA44AAF1BE0AEB
:103820000EE0E0070AD03246684607EB4701012365
:103830000AEB81014FF0E8FC8DE8070064107F1C63
:10384000002CEED1194F7F44AE3F19E0E80715D0A8
:1038500007EB04100DF1180A90E80E008AE80E003C
:10386000C068F04201D1981908903246012306A998
:1038700003A84FF0C9FC03AB83E807006D10641C7C
:10388000002DE3D14FF0010332466946B8F1000F35
:1038900003A802D04FF08EFC01E04FF0B5FCC9E95F
:1038A0000001C9F808200AB0BDE8F087F00605005D
:1038B0002DE9F05F0E4680461C46924602FB06F557
:1038C00003F14C00834628F029FB16B3A7680020BB
:1038D00041E0002F41DCE069A8421CDAB9F1000F99
:1038E00019D0224629464046FEF728FE08B1A760B7
:1038F00029E0E06810F4C06F01D0002008E02269E0
:103900006168891AE269511AC003A16001D4484272
:10391000A060544618E0A84203DAE06840F40000D2
:10392000E060214698F80000FEF711FDE16821F4FF
:103930000001E160411C06D0A76800280ADB6D1E6B
:1039400008F1010818E00024584628F069FB2046D9
:10395000BDE8F09F012081460EE0AF423E4600DD0B
:103960002E46414632466068FDF70AFD6068BF1B7F
:10397000AD1B3044B0446060002DAADCA760C8E7EE
:103980002DE9F04707461348814628F0C7FA124C44
:1039900040F2022817E094F85000C00710D0BC4253
:1039A0000ED004F14C05284628F0B8FAE6682846FF
:1039B00028F036FB38EA060002D12046FDF78EFBE0
:1039C000206D20F00104002CE5D1484628F028FBAA
:1039D000BDE8F0870C020020240400202DE9FE43FE
:1039E0000E461746804600210846AFF30080054684
:1039F0000020009001905EB130784FF0FF3900B1A7
:103A0000AFB11DB1D5E90001CDE9000100240CE002
:103A10000020BDE8FE83315D6A46641C02A800F008
:103A200042FC411C03D0012803D0BC42F3D34846DA
:103A3000EFE71DB1DDE90001C5E90001B8F1000FB4
:103A400003D0BDF80810A8F80010BDF80800002841
:103A5000DFD02046DDE770B50C4605460AB11046BA
:103A600003E004210020AFF3008022462946BDE890
:103A700070400346002000F039B82DE9F84F914618
:103A8000884607464FF000045FEA030A0D681BD121
:103A900007210020AFF30080824615E015F8011BD6
:103AA0005246684600F0FFFB0646401C13D0B61C89
:103AB0000AD01FB1BDF8000027F81400BDF80000BF
:103AC000641C70B1C8F80050002FE7D04C45E5D316
:103AD0002046BDE8F88FFCF7BBFC042101603046AE
:103AE000F7E70021601EC8F80010F2E700F082BB83
:103AF00000F0BCBB2DE9F84F9B461746894680462F
:103B00000024DDF828A00D685FEA0A001ED1092113
:103B1000AFF30080824619E007B315F8011B524647
:103B200068467F1E00F0BFFB0646401C19D0B61C3D
:103B30000CD0B8F1000F03D0BDF8001028F8141015
:103B4000BDF80000641C90B1C9F80050B8F1000F36
:103B5000E2D05C45E0D32046BDE8F88FC9F80050BC
:103B6000F9E7FCF775FC042101603046F4E7002119
:103B7000601EC9F80010EFE72DE9FF4F9146884617
:103B8000824683B00024109F0E688FBB0A2100205C
:103B9000AFF3008007462BE017B1D7E900B10291DF
:103BA0003A4668463188FEF785FE0546401C0BD034
:103BB000BAF1000F16D00698291981420CD9EFB13D
:103BC0000299C7E900B119E0FCF742FC0421016049
:103BD000284607B0BDE8F08F0AEB04002A46694684
:103BE000FDF7CEFB30882C4450B1B61CC8F80060FD
:103BF000D8F8000010B1B9F10109CDD22046E8E7AC
:103C00000021641EC8F80010F8E710B5FCF718FC96
:103C1000006890F80111012901D0012010BDD0F8F1
:103C20000B0110BD002801D028F00CBA704700002D
:103C300010B5002102A000F056FB012010BD0000CD
:103C4000534947414252543A2041626E6F726D614E
:103C50006C207465726D696E6174696F6E0000002E
:103C600010B500F059FBBDE81040FFF7DBBF10B501
:103C700000F06CFBBDE81040FFF7D4BF520000F02D
:103C800099BB2DE9F0410F46144605468046800752
:103C900004D084B12F80541E08F10205022C0AD3EF
:103CA000284624F0010647EA07427100FDF792FC1E
:103CB000A41B05EB460504B12F804046BDE8F0810A
:103CC00070B5054601B90721541A241DB4F5B67F15
:103CD00009DD286800F05DF9A04204DC2868401C7A
:103CE0002860012070BD002C05DA2868401E28607D
:103CF00000F04FF90444072094FBF0F0401C70BD25
:103D00002DE9F04F1F4615468B468246002689B0A6
:103D1000FDF7E4FCD0F810800024BBF1000F70D058
:103D200015F8010B10B125280DD10FE024B1641E48
:103D300006A850F82450F3E7002130460AF8061090
:103D400009B0BDE8F08F0AF80600C7E0E94615F8AB
:103D5000010B592870D023DC49286ED014DC44288C
:103D60006DD008DC2528EED041283ED0422849D02D
:103D700043282CD156E04528E9D0462869D0472869
:103D800076D0482823D17AE04D380C281FD2DFE8BE
:103D900000F0881E061E1E9BA0A9B3B5C1CFD6E7B2
:103DA0005A38212813D2DFE800F011121212121231
:103DB000121A2637455012592612741212797E12A1
:103DC0008012891296A212B3BDCB1100A8E725205C
:103DD0000AF80600761C5E4513D26D1EA0E7D8F8DF
:103DE0000010BA69D8F8240011E0D8F80410BA69B4
:103DF000D8F828000BE0D8F808103A69D8F82C0059
:103E000005E0B2E0D8F80C103A69D8F8300002FBAF
:103E1000001101EB0809AAE006A840F82450D8F8E0
:103E200018108AE07969642091FBF0F21332484659
:103E300068A192E0FA6889E08AE022E0FFE706A83C
:103E400040F8245065A5641C6AE7FA6866A14846F4
:103E500083E006A840F8245064A5F4E7384600F053
:103E6000ADF8642190FBF1F201FB120258E0FFE78C
:103E7000384600F0A3F802465FA168466DE0BA68D4
:103E800064E0B8680C210B3090FBF1F201FB1202E8
:103E900005E0FA6959A14846521C5EE03A694DA115
:103EA000F9E77A6852E00A2116E0B8680C2802DACD
:103EB000D8F81010ADE7D8F81410AAE706A840F813
:103EC0002450D8F8341038E006A840F824504DA506
:103ED000B9E73A683AE009210AF80610761C5E450F
:103EE000B2D342E006A840F8245048A5ABE7BA692F
:103EF00002B9072248A1AAE700210CE0786900F284
:103F00006C700890D7E9061208A8FFF7D9FE06E002
:103F1000BA69EFE70121D7E9062000F02EF8024642
:103F20002CA1AAE706A840F82450D8F81C1004E0F9
:103F300006A840F82450D8F8201001EB080582E7C5
:103F40007969642091FBF0F200FB121221A17EE757
:103F50007A69484628A102F26C7200F0AFF806E0D8
:103F60000AF80600761C5E4501D30020E8E619F841
:103F7000010B00283FF4DFAEF2E7511A00D5C91D4E
:103F8000401A01D500207047072190FBF1F0401C3A
:103F9000704781070CD1642190FBF1F201FB120103
:103FA00051B94FF4C87190FBF1F201FB120018B146
:103FB000002000F26D1070470120FAE708B5416952
:103FC00001F26C710091D0E906126846FFF778FEA5
:103FD000009808BD252E326400000000256D2F25B5
:103FE000642F2579000000002532640025592D2515
:103FF0006D2D25640000000025640000252E33642B
:104000000000000025483A254D00000025483A25CB
:104010004D3A255300000000252E316400000000B9
:1040200010B5FDF756FB0068BDE8104000F0C6B9BA
:10403000B2F120030AD5C2F1200301FA02F120FAFD
:1040400003F341EA030100FA02F0704700FA03F1BA
:104050004FF00000704710B50446FF2801D900203A
:1040600010BDFCF7EDF90068005D10F0980F03D06B
:10407000C10701D140F4806010F4846F01D040F496
:10408000006010F0BA0F01D040F4807010F0BE0F45
:1040900001D040F40070810604D5010602D440F03E
:1040A000800001E020F02000C10701D0410601D5C9
:1040B000092CD5D140F4805010BD00000FB41CB5C0
:1040C000084B06AA7B44694600900598FDF7C7FD9A
:1040D000044600206946FDF7D5FD20461CBC5DF86E
:1040E00014FB0000BDDBFFFF2DE9F04791460E46B3
:1040F00080460446002514F8017B2FB1FCF7A0F997
:104100000068C05DC007F6D12B2F02D02D2F1ED026
:10411000641E4A463146204600F08AFB26B13268CA
:10412000A24201D1C6F800804FF002046A0518D5FA
:104130000023D0EB030563EB01025D1B934109DB18
:104140000023D0EB030063EB0101BDE8F08745F4E9
:104150008065DEE7FCF77CF9046000204FF0004149
:10416000F3E7021E71F10002EFDAFCF771F9046067
:104170004FF0FF304108E8E72DE9F05F93460F4626
:10418000804604460026FCF763F9D0F8009082468A
:1041900014F8015B2DB1FCF753F90068405DC007CE
:1041A000F6D12B2D02D02D2D1FD0641E0021CAF870
:1041B00000105A463946204600F03AFB024627B125
:1041C0003868A04201D1C7F80080DAF80000022860
:1041D0000ED0CAF8009070050AD500200346D2EB35
:1041E000000063EB0101BDE8F09F46F48066DDE767
:1041F0001046F8E72DE9F8439946174680464FF0F8
:1042000000060C0002D18846012717A4B9F1000F5F
:1042100025D105210020AFF3008081461FE014F86E
:10422000011B4A46684600F03EF8761C0546401CD5
:104230000FD0AD1C13D0B8F1000F03D0BDF80010A3
:10424000A8F80010BDF80000002800D03046BDE8F6
:10425000F883FCF7FDF8042101602846F7E77F1E8C
:10426000DDD26FF00100F2E7000000007CB50C46E3
:10427000054622B906210020AFF300800246214600
:104280006846FEF717FB0446401C07D025B12246BE
:1042900069462846FDF774F820467CBDFCF7D8F83F
:1042A00004210160F8E7F8B516460C460546FCF710
:1042B000C7F8036893F80101012804D0185D78B1AC
:1042C00001202C80F8BDD3F803013246214603F2C9
:1042D0000313C71868460023B84700992980F8BD22
:1042E0004FF0FF30F8BD70B505460C460A2000E0DF
:1042F0006D1C27F0A9FF35B128780028F8D102E01D
:10430000641C27F0A1FF14B120780028F8D1BDE883
:1043100070400A2027F098BF10B5014602A0FFF7B1
:10432000E2FF012010BD000053494752545245445A
:104330003A2052656469726563743A2063616E273E
:1043400074206F70656E3A200000000010B50128DF
:1043500005D0002103A0FFF7C6FF012010BD09A171
:10436000F8E7000053494752544D454D3A204F75E8
:1043700074206F662068656170206D656D6F72795D
:10438000000000003A2048656170206D656D6F7215
:104390007920636F7272757074656400520000F06A
:1043A000A8BA002101E0801C491C0288002AFAD129
:1043B0000846704701B5FCF7E3FF01BD10B50C30AE
:1043C00027F0BAFD10BD10B5FCF742F8006810BD2B
:1043D00010B50446FCF73CF8046010BD2DE9FF4F12
:1043E0001F464FF03C0987B04FF00042DDE9141042
:1043F00001F10108DDF858A002EA405003900020C6
:1044000005908346054604460490B969461E0898FF
:104410008847AAF1010A0290BAF1000F3BDD029829
:104420002E2815D01021FDF7A5FC00282EDB4FF01B
:10443000010B0599014317D0B9F1000F0BDB4A4678
:10444000C117FFF7F5FD05430C43A9F1040905E089
:10445000012004900BE008B145F001050120059012
:10446000049820B9361D02E0049800B1361FB969DE
:10447000089808F101088847BBF1000FAAF1010A6A
:104480000290C9D00999C1F80080C5E70298702848
:1044900008D0502806D0F96908988847BBF1000F6A
:1044A00014D04FE0002002900120BBF1000F0490D7
:1044B00009D0B969089808F101088847AAF10109EB
:1044C000B9F1000F07DCF969089888476FF001001F
:1044D0000BB0BDE8F08F2B2804D02D280CD14FF065
:1044E000FF300490B969089808F101088847A9F1DC
:1044F0000109B9F1000FE6DD411CE4D00A21FDF706
:1045000039FC0028DFDB029908F1010801EB810189
:1045100000EB41000290B969089888470A21FDF72D
:1045200029FC099AA9F10109B9F1000FC2F800802C
:1045300001DD0028E7DAF9690898884704990298AC
:1045400000FB016655EA040004D004F04041090074
:1045500002D006E0039898E0A40044EA9574AD0008
:10456000B61E04F00041080002D16D196441761EA8
:10457000159810F0240F03D04FF00B095C4803E0AE
:104580004FF028096FF07D008246564507DAAAEB06
:1045900006018944B9F1410F01DD4FF041090120C5
:1045A0000021A9F10102FFF743FD024628400B4616
:1045B0002140084301D0012100E00021501E02915A
:1045C00043F1FF3128402140084301D0012000E0A1
:1045D00000200299834651EA0B014FD00021084682
:1045E0004FF00000039900F4400039B100EB800067
:1045F0004FF4400100EBD07001EA60008015012803
:1046000002DD4FF0FF3000E013D0401C36D002989E
:1046100060B3BBF1000F0CD14A4601200021FFF727
:1046200007FD28402140084301D0012000E0002080
:10463000E0B101204A460021FFF7FAFC0346401989
:104640000A4661412D1A8C4111D3B9F1400F09DDA1
:10465000159810F0240F02D0AAF1340603E0AAF155
:10466000170600E0761C00254FF0004406E05B1EB4
:1046700042F1FF3220EA030521EA0204CAF10100F7
:10468000B04206DA1B4903980843019000200090CD
:104690000EE0039AC4F3D321E80A0A43164940EA1C
:1046A00044500A433146CDE9000268464FF01DF8F8
:1046B000159810F0240F0BD01598C00715D1386845
:1046C000DDE90012031D3B600068C0E900120CE048
:1046D00002A869464FF000F81598C00705D1386860
:1046E000029A011D3960006802604046F0E6000051
:1046F00002FCFFFF0000F07F0000F03F2DE9FF4FBC
:1047000092461D4685B04FF00041DDE9124BDDE9D0
:1047100014727F1E01EA4B50414940F0FF4940EAC4
:104720000108002122F020004928049102D04E28DF
:1047300028D04CE03BA0012607C88DE80700A969F6
:104740000698641C88477F1E014606D41DF80600A3
:1047500018B121F0200181420BD0E9690698884701
:10476000032E34D0082E32D06FF0010009B0BDE81E
:10477000F08F761C032E01D0082EE0D1601CCAF801
:104780000000DCE7A9690698641C88477F1E2AD4CC
:1047900020F02000412826D1A9690698641C88478A
:1047A0007F1E20D420F020004E281CD1A969069835
:1047B000641C88477F1E48F4002849F48009CAF821
:1047C000004001D4282806D0E969069888475FEAA6
:1047D000CB7012D022E0A9690698641C88477F1E1E
:1047E00001D4002803DAE96906988847BCE729283C
:1047F000F1D1641CCAF80040E9E71BF0240F07D090
:1048000028680499031D2B600068C0E9001805E0C2
:104810002868021D2A600068C0F800902046A5E7BD
:104820000000F07F494E46494E49545900000000AF
:104830002DE9F74F4FF000091546CA46009C14F8C1
:10484000010B302801D0ADB115E014F8010B4FF089
:104850000109782803D0582801D04DB10BE00DB1E3
:10486000102D08D14FF0000914F8010B102502E0BB
:10487000082500E00A2500274FEAE57B3E46B846BA
:1048800016E0A5FB07234FF0010905FB08000BFB11
:104890000731030C05FB0616D7181FFA80F846F1FE
:1048A0000006381E76F5803000D3CA4614F8010B96
:1048B0002946FDF75FFA0028E3DA019838B1B9F12B
:1048C000000F01D0641E00E0009C01980460BAF162
:1048D000000F08D0FBF7BCFD02210160C81E014695
:1048E00003B0BDE8F08F310441EA174148EA0740C0
:1048F000F6E701B5FCF789FD01BD000040F20002BA
:1049000040F2000148F22870C0F20002C0F200013B
:10491000C2F20000914218BF08464FF60001C2F2F1
:10492000030118BF1146FBF78DBC000043F6C071B0
:10493000C2F2000188677047002908BF7047887875
:10494000202843F6C070C2F200002CBF006FC06E7A
:10495000826808461047000080B543F6C071C2F275
:10496000000181F87C0046F25430C0F20500C1E934
:104970001B004CF23D614CF2F152C0F20201C0F258
:104980000202042003F0FCFF4CF23D51C0F2020190
:104990000020BDE8804002F099B8000010B582B058
:1049A00040F2C831C2F20001096843F6C072C2F297
:1049B00000028C88506702F0C9FF0438A04207DA71
:1049C00000240020642100220223009427F0F0FD3F
:1049D00002B010BD10B5013880B227F079FED0B119
:1049E000044690F83500B0B194F83400002818BFA0
:1049F00010BD092027F02EFE68B10346002084F880
:104A000035001E20187220680122018B0420BDE8A9
:104A1000104003F013BF10BD44F2400143F6C07CC8
:104A2000C2F200010020C2F2000CC1F8A80001206F
:104A30009CF87C3081F8AC00A1F13802614600BFDF
:104A400042F8381F82F8303010850130042801F117
:104A50002401F5D146F27030C0F20500CCF86C00AC
:104A600070470000B0B582B004460B200D4627F019
:104A7000F1FD70B103460320188002201872280A45
:104A80005D7298720025204600210122009528F0D1
:104A900055F902B0B0BD000044F2400046F280314A
:104AA000C2F20000C0F20501C0F8A8107047000073
:104AB00010B504460BF0D2FB44F2F000C2F2000045
:104AC000006860B1218A028A914201D2002207E087
:104AD0000246006820B1038A9942F9D200E0002220
:104AE00044F2F000C2F2000021460BF04FFB01201F
:104AF00028F0F0FCBDE810400BF0CCBB44F2F00114
:104B0000C2F200010861704728F052BB2DE9F04164
:104B10000C46064628F01EFB48B30546F4B144F2A5
:104B20000818C2F2000898F8140000B300270AE041
:104B3000013798F81410F8B20234884205F10205E2
:104B400028BFBDE8F081208828802388002BEFD083
:104B5000F9B23046002228F013FBE9E744F20810CE
:104B6000C2F20000007D41002846FCF70FFDBDE8C1
:104B7000F081000044F20813C2F200031875C3E983
:104B8000031244F2F0004DF2E911C2F20000C0F24B
:104B9000020141617047000080B529F0EDFE006818
:104BA00080BD000043F6C07144F23010C2F2000133
:104BB000C2F2000091F87C201C380123C16280F809
:104BC0002820038401332431042B00F11C00F5D18B
:104BD00044F2F00046F29831C2F20000C0F2050142
:104BE0008160704744F2F00046F254324CF2AD530B
:104BF000C2F200000021C0F20502C0F20203C0E9C7
:104C00000011C0E9022343F6C07046F28831C2F2B7
:104C10000000C0F2050101677047000010B50446AE
:104C20000BF01CFB44F2F000C2F20000016889B1F5
:104C3000088AA04202D1002206E000BF0A460968A5
:104C400041B1088AA042F9D144F2F000C2F200005A
:104C50000BF0D0FA012028F03DFCBDE810400BF02D
:104C600019BB000070B582B015460C4606460BF025
:104C7000F5FA01A9304628F047FD28B1064680899B
:104C8000A04203D20D240CE00A240AE070682946F1
:104C90002246FCF775FBB07B000744BFB068048078
:104CA00000240BF0F7FA204602B070BDB0B51446F0
:104CB0000D4629F061FE45600473B0BD10B50C4689
:104CC00029F05AFE046010BD44F28410C2F20000C4
:104CD0000021C0E90C1144F2F0004EF68911C2F235
:104CE0000000C0F20201C16040F28C204EF29161DE
:104CF000C2F20000C0F202010164704780B540F2C8
:104D0000AD6140F2D142C0F20301C0F203020320C0
:104D10002AF0CCF844F2BC10C2F200000021C0E935
:104D20000011C0E90211C0E90411C0E9061180BDFB
:104D300080B540F20171C0F20301072000222AF081
:104D4000B5F840F2D971C0F20301082000222AF020
:104D5000ADF844F2E420C2F200002421FCF738FC54
:104D600080BD000080B54FF27971C0F202010620CB
:104D700000222AF09BF844F20830C2F200003421ED
:104D8000FCF726FC80BD000080B54FF2DD714FF2CC
:104D90009D52C0F20201C0F2020204202AF086F8FD
:104DA00044F27040C2F200000021C0E90011C0E9E5
:104DB0000211C0E90411816180BD000080B540F29C
:104DC000857140F2D542C0F20301C0F20302052012
:104DD0002AF06CF844F27040C2F200000021C0E9F1
:104DE0000011C0E90211C0E90411816180BD000019
:104DF0002DE9F04381B041F20015C4F20005D5F869
:104E00000402C00728D0286830B300202860286832
:104E10004FF20450C4F201004FF48041416048F267
:104E20001050C2F200000178012906D141F2505120
:104E3000C4F2000109680A2909D00178022960D169
:104E400041F25051C4F200010968022959D101B060
:104E5000BDE8F04347F0EEB9D5F8040240072FD57E
:104E6000A86868B30020A86048F24419A868C4F292
:104E700000094FF400304FF2045848F24056C9F888
:104E8000C4010820C4F20108C4F2000626F0FCFCAC
:104E90000220C5F8000144F60210C2F200000078BA
:104EA00003284ED144F2B660C2F200000178182007
:104EB000032900F08A80022908BF0C20002190E01D
:104EC000D5F80402000740F10481E868002800F0EA
:104ED00000810020E86044F60216E868C2F200068D
:104EE0003078032839D10220307047F0E1F944F2DC
:104EF000B060C2F200000168002001B0BDE8F043DC
:104F0000084744F60211C2F200010A78032A18BFCA
:104F100002780978042903D00178022940F0E08062
:104F200000226A6048F244116A68C4F200014FF43A
:104F30000032C1F8C0210A68002A1CBF01220A60A1
:104F4000CEE0286D01282DD144F25960C2F2000054
:104F500001210170002028652AE03078042840F003
:104F6000B88044F2BC60C2F20000006848F24051D0
:104F700044F25862C4F20001C2F20002407889682B
:104F80001278032A00F0B180022AA1F1090100F091
:104F9000C880A1EBC000012A14BFA0F13808A0F11D
:104FA0003A08C2E044F25960C2F2000002210170E6
:104FB00044F25860C2F20000007803281ED0022894
:104FC00030D100200221712230E044F2B761C2F2F8
:104FD00000010978C022012904BF062030220146C1
:104FE000104644F25862C2F200021278032A41D0FD
:104FF000022A45D108221023B12444E044F259602A
:10500000C2F2000003781820012B6FF0B30140F2C8
:10501000251208BF062008BF6FF03001012B08BF22
:10502000952203E000206FF001017D2244F2B66377
:10503000C2F200031B7844F2B8649F1EB7FA87F7E8
:105040007F09032B08BF4FF0FF37B3681144C2F24A
:105050000004084494F90040184438442044306067
:10506000A5F58070C8F880004FF480400121C8F891
:10507000000020E050224FF4807340F20B1402E055
:1050800008222023A124B7680844384400F16A01AB
:105090003160A5F1FC01C8F880104FF48041C8F8D8
:1050A0000010E1181144084470600020C9F80000A5
:1050B000D9F80000022148F21050C2F2000001703D
:1050C000012149F8F81C3168F268891AB1F1FF3FF3
:1050D00002DD01B0BDE8F0834FF48041C8F8041050
:1050E0000021017001B0BDE8F08344F25962C2F2C0
:1050F0000002127840236FF09F07012A08BF102397
:1051000008BF6FF013076FF0130439440230012A0F
:1051100008BF6FF01C04214403FB1010A0F281189B
:1051200003E0A1EB8000A0F11D0841F25054C4F24D
:10513000000454F8087C09F003F907F07F010844E3
:10514000022148F21152317044F25961C2F2000258
:10515000C2F2000112780F7844F2B761002A08BF4A
:105160003A46C2F200010A7044F25462C2F20002EE
:10517000D5F8001316684FF6BC62CFF6FF72A2583E
:10518000C907C0F1000041B243460CBF0420002013
:105190000097B04701B0BDE8F083000080B582B051
:1051A00048F20830C4F200004FF40031016041F2CF
:1051B0000410C4F20000006808B102B080BD47F0DE
:1051C00039F844F25460C2F20000D0F800C04FF049
:1051D000000E0320002100220023CDF800E0E0476C
:1051E00002B080BD2DE9F04F87B006468A46088898
:1051F000317CC840C0075AD044F2C831C2F2000125
:105200004888984601304880D6E90001994649F817
:10521000080FD960C8E90001B07C9B460BF8130F5A
:10522000DAF8041014469874C1F3801011465A46F7
:105230004B4629F0CBFD02284FF0000700F0A68076
:105240000694012808BF0127DAF80400DAE90445CA
:105250009BF80010D9E90023CDE90245C0F3C00551
:105260000095C0F3800029F051FDBAF80210327C9D
:10527000044621FA02F09BF80010D9E9002300F05F
:10528000010029F0E9FD84421AD9DAF80400DAE9CC
:1052900004549BF80010D9E90023CDE90254C0F36F
:1052A000C0050095C0F3800029F030FD14E044F201
:1052B000C830C2F20000018800270131018065E09A
:1052C000BAF80200317CD9E90023C8409BF80010ED
:1052D00000F0010029F0C0FD002818BF012801D10D
:1052E000012705E0022803D1002F4FF000074DD120
:1052F00088F81470707C0127800788F8157045D5F0
:10530000F47CD6E90265DAF804009BF80010D9E9CC
:105310000023CDE90423CDE900650291C0F300101C
:105320000699224629F014FD074601282ED0022FA7
:1053300001D100272AE00AF1040207CACDE90212CE
:10534000C0F3400700F00100214632462B4600978B
:1053500029F0BAFC022818D14FF00007B4B105F4C7
:10536000404090F4804F11D19AF804000027800645
:105370000CD544F2C830C2F200000146008C013066
:10538000088488F81570012700E00127384607B027
:10539000BDE8F08F70B582B008F0E4FA4EF65D45D6
:1053A0004EF6DD344EF6A176C0F20205C0F20204DC
:1053B0004EF66973C0F20206C0F2020301202946CC
:1053C0002246009600F0F4FF4EF67973C0F2020315
:1053D000022029462246009600F0EAFF4EF6A57606
:1053E0004EF68973C0F20206C0F2020303200021C8
:1053F0002246009600F0DCFF44F23C30C2F200008E
:105400008C21FCF7E5F802B070BD0000B0B544F2A5
:10541000EE3CC2F2000C00258CF8005044F2EF3C48
:105420008C07C2F2000C0C468CF8005001F1040EFF
:1054300018BF2EF0030404EB0013591A47F6487303
:10544000C2F2000391421C609CBF8CF800000D4624
:10545000A8B2B0BDB0B544F2F43CC2F2000C0025D5
:105460008CF8005044F2F53C8C07C2F2000C0C465C
:1054700000EBC0038CF8005001F1040E18BF2EF0B1
:10548000030404EBC303591A47F64C73C2F200033A
:1054900091421C609CBF8CF800000D46A8B2B0BDC4
:1054A00010B544F2F73CC2F2000C4FF0000E44F28B
:1054B000F6338CF800E044F2F83CC2F200038C07AB
:1054C000C2F2000C83F800E001F104030C468CF8F2
:1054D00000E018BF23F0030404EBC003591A47F699
:1054E0005073C2F2000391421C609CBF8CF8000014
:1054F0008E461FFA8EF010BD2DE9F04F8BB080461E
:1055000000781D460F4600F00F030888012101FABC
:1055100003F919EA000F0ED0144644F2C832C2F261
:105520000002518898F80100013119F4C07F5180C0
:105530000DD0012607E044F2C830C2F20000018815
:1055400000260131018030460BB0BDE8F08F00F03D
:105550003F002B746874404610F8021B0893C1F397
:10556000801600F0B3FFAB462A464BF8080FE960FF
:10557000C5E9000102F8136F7868AE74C0F38010BB
:1055800021465B460A9229F021FC02284FF00006D2
:10559000D9D00997CDE90645012808BF0126099F02
:1055A000DDF828A07868D7E9044C9AF80010DBE908
:1055B0000023CDE9024CC0F3C0040094C0F3800086
:1055C00029F0A4FB7988044619EA01009AF8001032
:1055D000DBE900235D4618BF012029F03DFC844231
:1055E00012D9DDF828907868D7E9044C99F80010B2
:1055F000D5E90023CDE9024CC0F3C0040094C0F308
:10560000800029F083FB0BE00A9C78882178D5E99B
:10561000002310EA090018BF012029F01DFCA14653
:10562000DDE907A1002818BF012830D101268AF83A
:105630001460012605298AF815603FF684AF06FA42
:1056400001F010F02A0F3FF47EAF18F8080B4FEA74
:10565000D01B404600F03AFF0446099899F8002014
:105660004068D5E900360F46CDE90436CDE9004162
:105670000292C0F3001006995A4629F069FB0646CB
:1056800001283FF460AF022E09D100265BE7022813
:10569000CDD1002E4FF000067FF455AFC7E7099A31
:1056A0003B46043207CACDE90212C0F3400600F0BF
:1056B000010059462246009629F006FB02281DD11A
:1056C000BBF1000F4FF000063FF43DAF07F4404040
:1056D00090F4804F7FF437AF099800260079800658
:1056E0007FF531AF44F2C830C2F200000146008CB1
:1056F000013008848AF81560012624E7012622E794
:10570000B0B546F6D062C2F2000292F8EBC081F862
:1057100000C092F8EAE092F8EB30734508D1D2E984
:1057200036E3D2E93854634085EA0E052B4302D0B4
:105730004CF002030B70D2E93812C0E90012B0BD80
:10574000B0B590F813C082F800C090F812E0C37CA6
:10575000734508D1D0E900E3D0E90254634085EAFB
:105760000E052B4302D04CF002031370D0E9020265
:10577000C1E90002B0BD0000B0B590F813C082F8D6
:1057800000C090F812E0C37C734508D1D0E900E373
:10579000D0E90254634085EA0E052B4302D04CF059
:1057A00002031370D0E90202C1E90002B0BD00009B
:1057B000B0B546F29842C2F2000292F86BC181F88D
:1057C00000C092F86AE192F86B31734508D1D2E9D2
:1057D00056E3D2E95854634085EA0E052B4302D0C4
:1057E0004CF002030B70D2E95812C0E90012B0BDB0
:1057F000B0B590F813C082F800C090F812E0C37CF6
:10580000734508D1D0E900E3D0E90254634085EA4A
:105810000E052B4302D04CF002031370D0E90202B4
:10582000C1E90002B0BD0000B0B590F813C082F825
:1058300000C090F812E0C37C734508D1D0E900E3C2
:10584000D0E90254634085EA0E052B4302D04CF0A8
:1058500002031370D0E90202C1E90002B0BD0000EA
:10586000B0B590F813C082F800C090F812E0C37C85
:10587000734508D1D0E900E3D0E90254634085EADA
:105880000E052B4302D04CF002031370D0E9020244
:10589000C1E90002B0BD000080B546F6D061C2F299
:1058A000000191F8EA2091F8EB3093424FF00002AA
:1058B000C0E900220AD1D1E936CED1E9383282EAF4
:1058C0000E0283EA0C031A4308BF80BDD1E93612E9
:1058D000C0E9001280BD000080B5827CC37C934289
:1058E0004FF00002C1E900220AD1D0E900CED0E990
:1058F000023282EA0E0283EA0C031A4308BF80BD1B
:10590000D0E90002C1E9000280BD000080B5827CC0
:10591000C37C93424FF00002C1E900220AD1D0E9D2
:1059200000CED0E9023282EA0E0283EA0C031A4367
:1059300008BF80BDD0E90002C1E9000280BD0000BF
:1059400080B546F29841C2F2000191F86A2191F8BF
:105950006B3193424FF00002C0E900220AD1D1E935
:1059600056CED1E9583282EA0E0283EA0C031A437A
:1059700008BF80BDD1E95612C0E9001280BD000009
:1059800080B54FF62901C0F202010920002229F05A
:105990008DFA44F22C60C2F200002421FBF718FEBD
:1059A00080BD000070B544F2EE3C44F2EF31C2F22B
:1059B000000CC2F200019CF800E009788E4524BF7B
:1059C000002070BD47F64871C2F200010968049CCE
:1059D00001EB0E154FEA0E1628720EF101008A51E6
:1059E0006B606C728CF80000012070BD70B544F2E1
:1059F000EE31C2F200010C78FCB147F64874C2F2F5
:105A000000042468DDF810C091F800E004F10801FA
:105A1000002404E00134744501F110010DD20D7829
:105A20008542F7D151E902565E4055403543F1D1E8
:105A30004D786545EED1012070BD002070BD00009D
:105A400044F2EE30C2F20000002101707047000005
:105A500044F2EF30C2F20000007870472DE9F043C5
:105A600044F2EE3CC2F2000C9CF80010C1B347F6C1
:105A70004877C2F20007D7F800E0DDF81C809CF8F8
:105A800000900EF10804002505E000BF0135103438
:105A90004D45494624D226788642F7D154E902671B
:105AA0005F4056403E43F1D166784645EED1C8B2DC
:105AB00002280FD34FF0FF3050FA81F0854209D011
:105AC0000EEB00121389000123805EF8000052687B
:105AD00044E90202481E8CF800000120BDE8F08372
